{
    "contractName": "StakingVault",
    "abi": [
        {
            "inputs": [
                {
                    "internalType": "contract IERC20",
                    "name": "_token",
                    "type": "address"
                },
                {
                    "internalType": "address",
                    "name": "_storage",
                    "type": "address"
                },
                {
                    "internalType": "address",
                    "name": "_admin",
                    "type": "address"
                },
                {
                    "internalType": "address",
                    "name": "_manager",
                    "type": "address"
                }
            ],
            "stateMutability": "nonpayable",
            "type": "constructor"
        },
        {
            "inputs": [],
            "name": "AccessControlBadConfirmation",
            "type": "error"
        },
        {
            "inputs": [
                {
                    "internalType": "address",
                    "name": "account",
                    "type": "address"
                },
                {
                    "internalType": "bytes32",
                    "name": "neededRole",
                    "type": "bytes32"
                }
            ],
            "name": "AccessControlUnauthorizedAccount",
            "type": "error"
        },
        {
            "inputs": [],
            "name": "EnforcedPause",
            "type": "error"
        },
        {
            "inputs": [],
            "name": "ExpectedPause",
            "type": "error"
        },
        {
            "inputs": [],
            "name": "InvalidAmount",
            "type": "error"
        },
        {
            "inputs": [
                {
                    "internalType": "address",
                    "name": "caller",
                    "type": "address"
                },
                {
                    "internalType": "address",
                    "name": "owner",
                    "type": "address"
                }
            ],
            "name": "NotStakeOwner",
            "type": "error"
        },
        {
            "inputs": [],
            "name": "ReentrancyGuardReentrantCall",
            "type": "error"
        },
        {
            "inputs": [
                {
                    "internalType": "address",
                    "name": "token",
                    "type": "address"
                }
            ],
            "name": "SafeERC20FailedOperation",
            "type": "error"
        },
        {
            "inputs": [
                {
                    "internalType": "bytes32",
                    "name": "stakeId",
                    "type": "bytes32"
                }
            ],
            "name": "StakeAlreadyUnstaked",
            "type": "error"
        },
        {
            "inputs": [
                {
                    "internalType": "address",
                    "name": "staker",
                    "type": "address"
                },
                {
                    "internalType": "bytes32",
                    "name": "stakeId",
                    "type": "bytes32"
                }
            ],
            "name": "StakeNotFound",
            "type": "error"
        },
        {
            "inputs": [
                {
                    "internalType": "bytes32",
                    "name": "stakeId",
                    "type": "bytes32"
                },
                {
                    "internalType": "uint256",
                    "name": "matureDay",
                    "type": "uint256"
                },
                {
                    "internalType": "uint16",
                    "name": "currentDay",
                    "type": "uint16"
                }
            ],
            "name": "StakeNotMatured",
            "type": "error"
        },
        {
            "anonymous": false,
            "inputs": [
                {
                    "indexed": false,
                    "internalType": "address",
                    "name": "token",
                    "type": "address"
                },
                {
                    "indexed": false,
                    "internalType": "address",
                    "name": "to",
                    "type": "address"
                },
                {
                    "indexed": false,
                    "internalType": "uint256",
                    "name": "amount",
                    "type": "uint256"
                }
            ],
            "name": "EmergencyRecover",
            "type": "event"
        },
        {
            "anonymous": false,
            "inputs": [
                {
                    "indexed": false,
                    "internalType": "address",
                    "name": "account",
                    "type": "address"
                }
            ],
            "name": "Paused",
            "type": "event"
        },
        {
            "anonymous": false,
            "inputs": [
                {
                    "indexed": true,
                    "internalType": "bytes32",
                    "name": "role",
                    "type": "bytes32"
                },
                {
                    "indexed": true,
                    "internalType": "bytes32",
                    "name": "previousAdminRole",
                    "type": "bytes32"
                },
                {
                    "indexed": true,
                    "internalType": "bytes32",
                    "name": "newAdminRole",
                    "type": "bytes32"
                }
            ],
            "name": "RoleAdminChanged",
            "type": "event"
        },
        {
            "anonymous": false,
            "inputs": [
                {
                    "indexed": true,
                    "internalType": "bytes32",
                    "name": "role",
                    "type": "bytes32"
                },
                {
                    "indexed": true,
                    "internalType": "address",
                    "name": "account",
                    "type": "address"
                },
                {
                    "indexed": true,
                    "internalType": "address",
                    "name": "sender",
                    "type": "address"
                }
            ],
            "name": "RoleGranted",
            "type": "event"
        },
        {
            "anonymous": false,
            "inputs": [
                {
                    "indexed": true,
                    "internalType": "bytes32",
                    "name": "role",
                    "type": "bytes32"
                },
                {
                    "indexed": true,
                    "internalType": "address",
                    "name": "account",
                    "type": "address"
                },
                {
                    "indexed": true,
                    "internalType": "address",
                    "name": "sender",
                    "type": "address"
                }
            ],
            "name": "RoleRevoked",
            "type": "event"
        },
        {
            "anonymous": false,
            "inputs": [
                {
                    "indexed": true,
                    "internalType": "address",
                    "name": "staker",
                    "type": "address"
                },
                {
                    "indexed": false,
                    "internalType": "bytes32",
                    "name": "stakeId",
                    "type": "bytes32"
                },
                {
                    "indexed": false,
                    "internalType": "uint128",
                    "name": "amount",
                    "type": "uint128"
                },
                {
                    "indexed": true,
                    "internalType": "uint16",
                    "name": "stakeDay",
                    "type": "uint16"
                },
                {
                    "indexed": true,
                    "internalType": "uint16",
                    "name": "daysLock",
                    "type": "uint16"
                }
            ],
            "name": "Staked",
            "type": "event"
        },
        {
            "anonymous": false,
            "inputs": [
                {
                    "indexed": false,
                    "internalType": "address",
                    "name": "account",
                    "type": "address"
                }
            ],
            "name": "Unpaused",
            "type": "event"
        },
        {
            "anonymous": false,
            "inputs": [
                {
                    "indexed": true,
                    "internalType": "address",
                    "name": "staker",
                    "type": "address"
                },
                {
                    "indexed": true,
                    "internalType": "bytes32",
                    "name": "stakeId",
                    "type": "bytes32"
                },
                {
                    "indexed": true,
                    "internalType": "uint16",
                    "name": "unstakeDay",
                    "type": "uint16"
                },
                {
                    "indexed": false,
                    "internalType": "uint128",
                    "name": "amount",
                    "type": "uint128"
                }
            ],
            "name": "Unstaked",
            "type": "event"
        },
        {
            "inputs": [],
            "name": "CLAIM_CONTRACT_ROLE",
            "outputs": [
                {
                    "internalType": "bytes32",
                    "name": "",
                    "type": "bytes32"
                }
            ],
            "stateMutability": "view",
            "type": "function"
        },
        {
            "inputs": [],
            "name": "CONTROLLER_ROLE",
            "outputs": [
                {
                    "internalType": "bytes32",
                    "name": "",
                    "type": "bytes32"
                }
            ],
            "stateMutability": "view",
            "type": "function"
        },
        {
            "inputs": [],
            "name": "DEFAULT_ADMIN_ROLE",
            "outputs": [
                {
                    "internalType": "bytes32",
                    "name": "",
                    "type": "bytes32"
                }
            ],
            "stateMutability": "view",
            "type": "function"
        },
        {
            "inputs": [],
            "name": "MANAGER_ROLE",
            "outputs": [
                {
                    "internalType": "bytes32",
                    "name": "",
                    "type": "bytes32"
                }
            ],
            "stateMutability": "view",
            "type": "function"
        },
        {
            "inputs": [],
            "name": "MULTISIG_ROLE",
            "outputs": [
                {
                    "internalType": "bytes32",
                    "name": "",
                    "type": "bytes32"
                }
            ],
            "stateMutability": "view",
            "type": "function"
        },
        {
            "inputs": [
                {
                    "internalType": "contract IERC20",
                    "name": "token_",
                    "type": "address"
                },
                {
                    "internalType": "uint256",
                    "name": "amount",
                    "type": "uint256"
                }
            ],
            "name": "emergencyRecover",
            "outputs": [],
            "stateMutability": "nonpayable",
            "type": "function"
        },
        {
            "inputs": [
                {
                    "internalType": "bytes32",
                    "name": "role",
                    "type": "bytes32"
                }
            ],
            "name": "getRoleAdmin",
            "outputs": [
                {
                    "internalType": "bytes32",
                    "name": "",
                    "type": "bytes32"
                }
            ],
            "stateMutability": "view",
            "type": "function"
        },
        {
            "inputs": [
                {
                    "internalType": "bytes32",
                    "name": "role",
                    "type": "bytes32"
                },
                {
                    "internalType": "address",
                    "name": "account",
                    "type": "address"
                }
            ],
            "name": "grantRole",
            "outputs": [],
            "stateMutability": "nonpayable",
            "type": "function"
        },
        {
            "inputs": [
                {
                    "internalType": "bytes32",
                    "name": "role",
                    "type": "bytes32"
                },
                {
                    "internalType": "address",
                    "name": "account",
                    "type": "address"
                }
            ],
            "name": "hasRole",
            "outputs": [
                {
                    "internalType": "bool",
                    "name": "",
                    "type": "bool"
                }
            ],
            "stateMutability": "view",
            "type": "function"
        },
        {
            "inputs": [],
            "name": "pause",
            "outputs": [],
            "stateMutability": "nonpayable",
            "type": "function"
        },
        {
            "inputs": [],
            "name": "paused",
            "outputs": [
                {
                    "internalType": "bool",
                    "name": "",
                    "type": "bool"
                }
            ],
            "stateMutability": "view",
            "type": "function"
        },
        {
            "inputs": [
                {
                    "internalType": "bytes32",
                    "name": "role",
                    "type": "bytes32"
                },
                {
                    "internalType": "address",
                    "name": "callerConfirmation",
                    "type": "address"
                }
            ],
            "name": "renounceRole",
            "outputs": [],
            "stateMutability": "nonpayable",
            "type": "function"
        },
        {
            "inputs": [
                {
                    "internalType": "bytes32",
                    "name": "role",
                    "type": "bytes32"
                },
                {
                    "internalType": "address",
                    "name": "account",
                    "type": "address"
                }
            ],
            "name": "revokeRole",
            "outputs": [],
            "stateMutability": "nonpayable",
            "type": "function"
        },
        {
            "inputs": [
                {
                    "internalType": "uint128",
                    "name": "amount",
                    "type": "uint128"
                },
                {
                    "internalType": "uint16",
                    "name": "daysLock",
                    "type": "uint16"
                }
            ],
            "name": "stake",
            "outputs": [
                {
                    "internalType": "bytes32",
                    "name": "stakeId",
                    "type": "bytes32"
                }
            ],
            "stateMutability": "nonpayable",
            "type": "function"
        },
        {
            "inputs": [
                {
                    "internalType": "address",
                    "name": "staker",
                    "type": "address"
                },
                {
                    "internalType": "uint128",
                    "name": "amount",
                    "type": "uint128"
                },
                {
                    "internalType": "uint16",
                    "name": "daysLock",
                    "type": "uint16"
                }
            ],
            "name": "stakeFromClaim",
            "outputs": [
                {
                    "internalType": "bytes32",
                    "name": "stakeId",
                    "type": "bytes32"
                }
            ],
            "stateMutability": "nonpayable",
            "type": "function"
        },
        {
            "inputs": [],
            "name": "stakingStorage",
            "outputs": [
                {
                    "internalType": "contract IStakingStorage",
                    "name": "",
                    "type": "address"
                }
            ],
            "stateMutability": "view",
            "type": "function"
        },
        {
            "inputs": [
                {
                    "internalType": "bytes4",
                    "name": "interfaceId",
                    "type": "bytes4"
                }
            ],
            "name": "supportsInterface",
            "outputs": [
                {
                    "internalType": "bool",
                    "name": "",
                    "type": "bool"
                }
            ],
            "stateMutability": "view",
            "type": "function"
        },
        {
            "inputs": [],
            "name": "token",
            "outputs": [
                {
                    "internalType": "contract IERC20",
                    "name": "",
                    "type": "address"
                }
            ],
            "stateMutability": "view",
            "type": "function"
        },
        {
            "inputs": [],
            "name": "unpause",
            "outputs": [],
            "stateMutability": "nonpayable",
            "type": "function"
        },
        {
            "inputs": [
                {
                    "internalType": "bytes32",
                    "name": "stakeId",
                    "type": "bytes32"
                }
            ],
            "name": "unstake",
            "outputs": [],
            "stateMutability": "nonpayable",
            "type": "function"
        }
    ],
    "bytecode": "60c03461010057601f61151938819003918201601f19168301916001600160401b03831184841017610104578084926080946040528339810103126101005780516001600160a01b03811681036101005761009e61005f60208401610118565b9261008e61007b606061007460408501610118565b9301610118565b60015f556100888361012c565b506101a2565b5061009881610235565b506102c8565b5060a0526001600160a01b031660805260405161111d908161035c82396080518181816101e9015281816104cf015281816105ed015281816108900152610f7c015260a05181818161010f0152818161049e015281816106a601526109630152f35b5f80fd5b634e487b7160e01b5f52604160045260245ffd5b51906001600160a01b038216820361010057565b6001600160a01b0381165f9081525f5160206114995f395f51905f52602052604090205460ff1661019d576001600160a01b03165f8181525f5160206114995f395f51905f5260205260408120805460ff191660011790553391905f5160206114795f395f51905f528180a4600190565b505f90565b6001600160a01b0381165f9081525f5160206114d95f395f51905f52602052604090205460ff1661019d576001600160a01b03165f8181525f5160206114d95f395f51905f5260205260408120805460ff191660011790553391907f241ecf16d79d0f8dbfb92cbc07fe17840425976cf0667f022fe9877caa831b08905f5160206114795f395f51905f529080a4600190565b6001600160a01b0381165f9081525f5160206114b95f395f51905f52602052604090205460ff1661019d576001600160a01b03165f8181525f5160206114b95f395f51905f5260205260408120805460ff191660011790553391907f7b765e0e932d348852a6f810bfa1ab891e259123f02db8cdcde614c570223357905f5160206114795f395f51905f529080a4600190565b6001600160a01b0381165f9081525f5160206114f95f395f51905f52602052604090205460ff1661019d576001600160a01b03165f8181525f5160206114f95f395f51905f5260205260408120805460ff191660011790553391907fa5a0b70b385ff7611cd3840916bd08b10829e5bf9e6637cf79dd9a427fc0e2ab905f5160206114795f395f51905f529080a460019056fe6080806040526004361015610012575f80fd5b5f905f3560e01c90816301ffc9a714610c6e57508063092c5b3b14610c34578063248a9ca314610c015780632f2ff15d14610bc357806336568abe14610b7d5780633f4ba83a14610b175780635c975abb14610af557806371ed5d1a146108475780638456cb59146107ec57806391d14854146107a25780639639011e14610638578063a217fddf1461061c578063b518a00e146105d7578063b55fb44c1461041a578063d547741f146103d2578063dbe46e6714610397578063e328400c1461035c578063ec87621c14610321578063fb1643d7146101415763fc0c546a146100fa575f80fd5b3461013e578060031936011261013e576040517f00000000000000000000000000000000000000000000000000000000000000006001600160a01b03168152602090f35b80fd5b503461013e57606036600319011261013e576004356001600160a01b038116908181036102d3576024356001600160801b038116928382036102c4576044359261ffff841680940361031d57610195610ed5565b7f7b86e74b5b2cbeb359a5556f7b8aa26ec9fb74773c1c7b2dc16e82d368c706278652600160209081526040808820335f908152925290205460ff16156102e65784156102d7576101e68691610f50565b947f00000000000000000000000000000000000000000000000000000000000000006001600160a01b0316803b156102d35760a483926040519485938492633e25fbb560e01b84528860048501528b60248501526044840152896064840152600160848401525af180156102c8576102af575b50604080518581526001600160801b0393909316602080850191909152955061ffff62015180420416927fb4f460978fdb20e7afbe2188428e86373f68e5f5667602f35309b25b293cbd769190a4604051908152f35b6102ba868092610cd7565b6102c4575f610259565b8480fd5b6040513d88823e3d90fd5b8280fd5b63162908e360e11b8652600486fd5b63e2517d3f60e01b8652336004527f7b86e74b5b2cbeb359a5556f7b8aa26ec9fb74773c1c7b2dc16e82d368c70627602452604486fd5b8580fd5b503461013e578060031936011261013e5760206040517f241ecf16d79d0f8dbfb92cbc07fe17840425976cf0667f022fe9877caa831b088152f35b503461013e578060031936011261013e5760206040517fa5a0b70b385ff7611cd3840916bd08b10829e5bf9e6637cf79dd9a427fc0e2ab8152f35b503461013e578060031936011261013e5760206040517f7b86e74b5b2cbeb359a5556f7b8aa26ec9fb74773c1c7b2dc16e82d368c706278152f35b503461013e57604036600319011261013e576104166004356103f2610cc1565b9061041161040c825f526001602052600160405f20015490565b610d8b565b610e51565b5080f35b503461013e57604036600319011261013e576004356001600160801b038116908181036102d3576024359061ffff82168092036105b957610459610ed5565b610461610ef0565b82156105c8576040516323b872dd60e01b6020820152336024820152306044820152606480820185905281526104c29061049c608482610cd7565b7f000000000000000000000000000000000000000000000000000000000000000061108f565b836104cc33610f50565b937f00000000000000000000000000000000000000000000000000000000000000006001600160a01b0316803b156102d35760a483926040519485938492633e25fbb560e01b84523360048501528a602485015260448401528860648401528160848401525af180156105bd576105a4575b509260019160209461ffff62015180420416907fb4f460978fdb20e7afbe2188428e86373f68e5f5667602f35309b25b293cbd766040518061059833948a839092916001600160801b036020916040840195845216910152565b0390a455604051908152f35b6105af858092610cd7565b6105b9575f61053e565b8380fd5b6040513d87823e3d90fd5b63162908e360e11b8452600484fd5b503461013e578060031936011261013e576040517f00000000000000000000000000000000000000000000000000000000000000006001600160a01b03168152602090f35b503461013e578060031936011261013e57602090604051908152f35b503461013e57604036600319011261013e576004356001600160a01b0381168082036102d3577fa5a0b70b385ff7611cd3840916bd08b10829e5bf9e6637cf79dd9a427fc0e2ab8352600160209081526040808520335f9081529252902054602435919060ff161561076b577f00000000000000000000000000000000000000000000000000000000000000006001600160a01b0316811461072657610701827f1fb552e352146cbf91ab18bef411c89c83078d9c853e55bef197d0b673128500943390610f0e565b604080516001600160a01b03929092168252336020830152810191909152606090a180f35b60405162461bcd60e51b815260206004820152601c60248201527f43616e6e6f74207265636f766572207374616b696e6720746f6b656e000000006044820152606490fd5b63e2517d3f60e01b8452336004527fa5a0b70b385ff7611cd3840916bd08b10829e5bf9e6637cf79dd9a427fc0e2ab602452604484fd5b503461013e57604036600319011261013e5760406107be610cc1565b9160043581526001602052209060018060a01b03165f52602052602060ff60405f2054166040519015158152f35b503461013e578060031936011261013e57610805610d1c565b61080d610ed5565b600160ff1960025416176002557f62e78cea01bee320cd4e420270b5ea74000d11b0c9f74754ebdbfc544b05a2586020604051338152a180f35b50346109e35760203660031901126109e357600435610864610ed5565b61086c610ef0565b60405163de57a5b560e01b8152336004820152602481018290526001600160a01b037f000000000000000000000000000000000000000000000000000000000000000016919060a081604481865afa9081156109d8575f91610a40575b506001600160801b0381511615610a295761ffff604082015116610a165761ffff620151804204169261ffff60208301511661ffff6060840151168101809111610a02578085106109e75750803b156109e35760405163377f548960e01b815233600482015260248101849052905f908290604490829084905af180156109d8576109bc575b50806109876001600160801b0380935116337f0000000000000000000000000000000000000000000000000000000000000000610f0e565b51166040519081527f954d6c098e53b2493dff95f8d8fe70acebd03cf52c3f36942c5a440864852ddf60203392a46001815580f35b6109c99194505f90610cd7565b5f926001600160801b0361094f565b6040513d5f823e3d90fd5b5f80fd5b84908463332c34ed60e01b5f5260045260245260445260645ffd5b634e487b7160e01b5f52601160045260245ffd5b50634fae759560e11b5f5260045260245ffd5b506353aecc3160e11b5f523360045260245260445ffd5b905060a0813d60a011610aed575b81610a5b60a09383610cd7565b810103126109e3576040519060a082019082821067ffffffffffffffff831117610ad957608091604052610a8e81610cf9565b8352610a9c60208201610d0d565b6020840152610aad60408201610d0d565b6040840152610abe60608201610d0d565b6060840152015180151581036109e35760808201525f6108c9565b634e487b7160e01b5f52604160045260245ffd5b3d9150610a4e565b346109e3575f3660031901126109e357602060ff600254166040519015158152f35b346109e3575f3660031901126109e357610b2f610d1c565b60025460ff811615610b6e5760ff19166002557f5db9ee0a495bf2e6ff9c91a7834c1ba4fdd244a5e8aa4e537bd38aeae4b073aa6020604051338152a1005b638dfc202b60e01b5f5260045ffd5b346109e35760403660031901126109e357610b96610cc1565b336001600160a01b03821603610bb457610bb290600435610e51565b005b63334bd91960e11b5f5260045ffd5b346109e35760403660031901126109e357610bb2600435610be2610cc1565b90610bfc61040c825f526001602052600160405f20015490565b610dc5565b346109e35760203660031901126109e3576020610c2c6004355f526001602052600160405f20015490565b604051908152f35b346109e3575f3660031901126109e35760206040517f7b765e0e932d348852a6f810bfa1ab891e259123f02db8cdcde614c5702233578152f35b346109e35760203660031901126109e3576004359063ffffffff60e01b82168092036109e357602091637965db0b60e01b8114908115610cb0575b5015158152f35b6301ffc9a760e01b14905083610ca9565b602435906001600160a01b03821682036109e357565b90601f8019910116810190811067ffffffffffffffff821117610ad957604052565b51906001600160801b03821682036109e357565b519061ffff821682036109e357565b335f9081527ffdb122eb892c6b3193f8499f050265ce5458caab5f6480270d8972921f24f429602052604090205460ff1615610d5457565b63e2517d3f60e01b5f52336004527f241ecf16d79d0f8dbfb92cbc07fe17840425976cf0667f022fe9877caa831b0860245260445ffd5b5f81815260016020908152604080832033845290915290205460ff1615610daf5750565b63e2517d3f60e01b5f523360045260245260445ffd5b5f8181526001602090815260408083206001600160a01b038616845290915290205460ff16610e4b575f8181526001602081815260408084206001600160a01b0396909616808552959091528220805460ff19169091179055339291907f2f8788117e7eff1d82e926ec794901d17c78024a50270940304540a733656f0d9080a4600190565b50505f90565b5f8181526001602090815260408083206001600160a01b038616845290915290205460ff1615610e4b575f8181526001602090815260408083206001600160a01b0395909516808452949091528120805460ff19169055339291907ff6391f5c32d9c69d2a47ea670b442974b53935d1edc7fd64eb21e047a839171b9080a4600190565b60ff60025416610ee157565b63d93c066560e01b5f5260045ffd5b60025f5414610eff5760025f55565b633ee5aeb560e01b5f5260045ffd5b60405163a9059cbb60e01b60208201526001600160a01b039092166024830152604480830193909352918152610f4e91610f49606483610cd7565b61108f565b565b604051630733bdef60e41b81526001600160a01b03918216600482018190529160c090829060249082907f0000000000000000000000000000000000000000000000000000000000000000165afa9081156109d8575f91610fdb575b50606061ffff910151166040519060208201928352604082015260408152610fd5606082610cd7565b51902090565b905060c0813d60c011611087575b81610ff660c09383610cd7565b810103126109e35760405160c081019080821067ffffffffffffffff831117610ad95761107b60a061ffff9460609460405261103181610cf9565b845261103f60208201610cf9565b602085015261105060408201610cf9565b6040850152611060858201610d0d565b8585015261107060808201610d0d565b608085015201610d0d565b60a08201529150610fac565b3d9150610fe9565b905f602091828151910182855af1156109d8575f513d6110de57506001600160a01b0381163b155b6110be5750565b635274afe760e01b5f9081526001600160a01b0391909116600452602490fd5b600114156110b756fea2646970667358221220d3aaaf7df874d10ad128d936492a0f4030d1ef93e4c5fa77c8bec853a8f1cc8964736f6c634300081e00332f8788117e7eff1d82e926ec794901d17c78024a50270940304540a733656f0da6eef7e35abe7026729641147f7915573c7e97b47efa546f5f6e3230263bcb49c3eac9ead20d697480ab489ced881761c627fd3281937449e4d4d7fbf9faa2cdfdb122eb892c6b3193f8499f050265ce5458caab5f6480270d8972921f24f42951742e600de46a1104017a154cc4cb94567d12a037fbc3b56afa949ed4909422",
    "sourcePath": "/Users/tknff/work/tknff/staking-system/src/StakingVault.sol",
    "compiler": {
        "name": "solc",
        "version": "0.8.30+commit.73712a01"
    },
    "functionHashes": {
        "CLAIM_CONTRACT_ROLE()": "dbe46e67",
        "CONTROLLER_ROLE()": "092c5b3b",
        "DEFAULT_ADMIN_ROLE()": "a217fddf",
        "MANAGER_ROLE()": "ec87621c",
        "MULTISIG_ROLE()": "e328400c",
        "emergencyRecover(address,uint256)": "9639011e",
        "getRoleAdmin(bytes32)": "248a9ca3",
        "grantRole(bytes32,address)": "2f2ff15d",
        "hasRole(bytes32,address)": "91d14854",
        "pause()": "8456cb59",
        "paused()": "5c975abb",
        "renounceRole(bytes32,address)": "36568abe",
        "revokeRole(bytes32,address)": "d547741f",
        "stake(uint128,uint16)": "b55fb44c",
        "stakeFromClaim(address,uint128,uint16)": "fb1643d7",
        "stakingStorage()": "b518a00e",
        "supportsInterface(bytes4)": "01ffc9a7",
        "token()": "fc0c546a",
        "unpause()": "3f4ba83a",
        "unstake(bytes32)": "71ed5d1a"
    },
    "gasEstimates": {
        "creation": {
            "codeDepositCost": "876200",
            "executionCost": "infinite",
            "totalCost": "infinite"
        },
        "external": {
            "CLAIM_CONTRACT_ROLE()": "491",
            "CONTROLLER_ROLE()": "180",
            "DEFAULT_ADMIN_ROLE()": "406",
            "MANAGER_ROLE()": "535",
            "MULTISIG_ROLE()": "513",
            "emergencyRecover(address,uint256)": "infinite",
            "getRoleAdmin(bytes32)": "2391",
            "grantRole(bytes32,address)": "33351",
            "hasRole(bytes32,address)": "2692",
            "pause()": "29931",
            "paused()": "2405",
            "renounceRole(bytes32,address)": "28934",
            "revokeRole(bytes32,address)": "33594",
            "stake(uint128,uint16)": "infinite",
            "stakeFromClaim(address,uint128,uint16)": "infinite",
            "stakingStorage()": "infinite",
            "supportsInterface(bytes4)": "275",
            "token()": "infinite",
            "unpause()": "27732",
            "unstake(bytes32)": "infinite"
        },
        "internal": {
            "_generateStakeId(address)": "infinite",
            "_getCurrentDay()": "infinite"
        }
    }
}